:020000020000FC
:0200000026C018
:0C000C0019C2000045C2000071C20000D3
:100048009FC10000E9C1F89408E00EBF0FEF0DBF93
:1000580002E00AB90FEF0BB908E304B906EC05B9D9
:100068000FE007B90FE308B900E00093640000EC63
:1000780000936D0000E300936C0006E000936B00B2
:1000880004E0009368004D9BC5C2A2D2D2E0C0E054
:100098000EEF0883CA95E9F7C0E020E0002450E09D
:1000A80040E040930F0340931003409311034093A3
:1000B800120340931303409314033324772470945A
:1000C800AA24AA946624882400E00093C5000FE0BF
:1000D8000093C40006E00093C20008E90093C10041
:1000E800789479E06FEF49D27AE06FE046D27BE00E
:1000F80062E043D27FEF60E040D27CE061E03DD235
:1001080040E024D255274FEFA41621F04A2D1ED2E5
:10011800AA24AA9449B1407C403C09F4546046B1F1
:100128004073403309F4526043B14670463009F4D5
:100138005160509368002224422D406348B9000062
:1001480000000000000000000000000000000000A7
:100158000000000000000000000000000000000097
:10016800000008944D998894379446E640937C00A3
:1001780047ED40937A0040917A0044FFFCCF5091BC
:100188007900B3E0A22D6C91651BF9F067FD6195CC
:100198006130D9F05C93F4E0E22DE068452F469594
:1001A800D5D1F894CF93C22F40EB4B0D4883C3951C
:1001B8004081CE2E4883C395452F469548832D5FB1
:1001C800CF9108EB0093C100789423944FE0241258
:1001D800B3CF332011F450E6952E55E03516E1F4EF
:1001E800F7D173E06AE0C9D172E06AE0C6D171E084
:1001F8006AE0C3D153E041E348B9000000004D99DB
:100208005E7F4FE348B9000000004D995D7F55239C
:1002180089F740E09BD14DC0532D57255321732CAE
:10022800552331F4939409F044C051EF952E532D82
:10023800551F48F448E1461567FE10F04CE0640E7F
:10024800462D84D136C0551F30F444E264126394BD
:10025800462D7CD12EC0551F30F440ED64126A94AF
:10026800462D74D126C0551F10F48A949EC1551F7F
:1002780048F44CED641667FC18F34CE0641A462DFC
:1002880065D117C0551F40F4F4E0EC2D408143952B
:100298004F7740835BD10DC0551F10F4839485C1FF
:1002A800551F38F4F4E0EC2D40814A954F77408390
:1002B8004DD14B991FC080FD1EC081606091120313
:1002C80060956F7760931203F4E0E2E9A62EF89444
:1002D800CF93C22F40EB4B0D4883C3954081CE2E60
:1002E8004883C39568832D5FCF9108EB0093C100C5
:1002F800789401C08E7F4A991FC081FD1EC082601C
:100308006091130360956F7760931303F4E0E3E95A
:10031800A62EF894CF93C22F40EB4B0D4883C3957C
:100328004081CE2E4883C39568832D5FCF9108EB1B
:100338000093C100789401C08D7F4C991FC082FD45
:10034800E1CE84606091140360956F776093140325
:10035800F4E0E4E9A62EF894CF93C22F40EB4B0DBE
:100368004883C3954081CE2E4883C39568832D5F0B
:10037800CF9108EB0093C1007894C4CE8B7FC2CE96
:100388001FB60091C6000E3F11F41FBE1895CF93FB
:1003980007FF16C0C22F022E102F107FB12EB026D5
:1003A800412E5524103D19F0103C09F023952E5F7D
:1003B80008830394CF9108EB0093C1001FBE1895E2
:1003C80051FC27C0142D5520B9F4103931F4D1E06F
:1003D800C02F060D0883D2E012C0103829F4D1E0EE
:1003E800C02F0881D2E00BC0103B49F4C02ED4E0E6
:1003F800C02F0881D2E003C0103B09F4A02E53940B
:10040800C02D08830394CF9108EB0093C1001FBE51
:100418001895CF911FBE18951FB608810E3F29F475
:1004280018E91093C1001FBE18950093C6000EEF7F
:100438000883C3951FBE18951FB600910F0319991D
:1004480003951A990A95003809F40FE70F3F09F444
:1004580000E010910F03101711F41FBE18950093B8
:100468000F03A02ECF93D4E0CFE81881CC2ED2E092
:10047800C22F00EB0B0D0883C3951883C395A88280
:100488002D5FCF9108EB0093C1000027009368000F
:100498001FBE18951FB6009110033599039534991E
:1004A8000A95003809F40FE70F3F09F400E01091AE
:1004B8001003101711F41FBE189500931003A02EF7
:1004C800CF93D4E0C0E91881CC2ED2E0C22F00EB44
:1004D8000B0D0883C3951883C395A8822D5FCF9110
:1004E80008EB0093C1000027009368001FBE189511
:1004F8001FB6009111034F9903954E990A9500383C
:1005080009F40FE70F3F09F400E0109111031017E9
:1005180011F41FBE189500931103A02ECF93D4E0B9
:10052800C1E91881CC2ED2E0C22F00EB0B0D088355
:10053800C3951883C395A8822D5FCF9108EB0093CC
:10054800C1000027009368001FBE18954D3918F0A8
:1005580041956AE005C060E0443610F061E0445619
:1005680071E00BD06FEF63954A50E8F7465F72E091
:1005780004D073E0642F01D008954F935F9350E146
:100588002B9847EC77FD47ED45B9660F771F0000BC
:1005980000002B9A000000005A9591F72D9A000050
:1005A80000002B985F914F9108954FE78422F894AB
:1005B800CF93C22F40EC4B0D4883C39588822E5FA2
:1005C800CF9108EB0093C1007894482DBFDF71CE1E
:1005D800B4E0A0E8F8E0E0E005E115911D930A9584
:1005E800E1F701E00093010402E00093020405E052
:1005F8000093050407E00093070400E40093400417
:1006080001E4009341040EE700937E040FE7009392
:0E0618007F0408950027489902E00BB9FBCF3C
:100800005B0D0C10485D4A5E4B5F4946474C1151E9
:06081000505253121300C8
:00000001FF
